{
  "contractName": "Product",
  "abi": [
    {
      "inputs": [
        {
          "internalType": "string",
          "name": "_name",
          "type": "string"
        }
      ],
      "payable": false,
      "stateMutability": "nonpayable",
      "type": "constructor"
    },
    {
      "anonymous": false,
      "inputs": [
        {
          "indexed": false,
          "internalType": "uint256",
          "name": "index",
          "type": "uint256"
        },
        {
          "indexed": false,
          "internalType": "address",
          "name": "owner",
          "type": "address"
        },
        {
          "indexed": false,
          "internalType": "string",
          "name": "ownerName",
          "type": "string"
        },
        {
          "indexed": false,
          "internalType": "string",
          "name": "name",
          "type": "string"
        },
        {
          "indexed": false,
          "internalType": "uint256",
          "name": "price",
          "type": "uint256"
        },
        {
          "indexed": false,
          "internalType": "string",
          "name": "manufactDate",
          "type": "string"
        },
        {
          "indexed": false,
          "internalType": "string",
          "name": "manufacturerName",
          "type": "string"
        }
      ],
      "name": "Added",
      "type": "event"
    },
    {
      "constant": true,
      "inputs": [],
      "name": "getName",
      "outputs": [
        {
          "internalType": "string",
          "name": "",
          "type": "string"
        }
      ],
      "payable": false,
      "stateMutability": "view",
      "type": "function"
    },
    {
      "constant": false,
      "inputs": [
        {
          "internalType": "string",
          "name": "_name",
          "type": "string"
        }
      ],
      "name": "setName",
      "outputs": [],
      "payable": false,
      "stateMutability": "nonpayable",
      "type": "function"
    },
    {
      "constant": false,
      "inputs": [
        {
          "internalType": "string",
          "name": "_manufacturerName",
          "type": "string"
        },
        {
          "internalType": "string",
          "name": "_ownerName",
          "type": "string"
        },
        {
          "internalType": "uint256",
          "name": "_serialNo",
          "type": "uint256"
        },
        {
          "internalType": "string",
          "name": "_name",
          "type": "string"
        },
        {
          "internalType": "uint256",
          "name": "_price",
          "type": "uint256"
        },
        {
          "internalType": "string",
          "name": "_date",
          "type": "string"
        }
      ],
      "name": "newProduct",
      "outputs": [],
      "payable": false,
      "stateMutability": "nonpayable",
      "type": "function"
    },
    {
      "constant": true,
      "inputs": [
        {
          "internalType": "uint256",
          "name": "_len",
          "type": "uint256"
        }
      ],
      "name": "getProduct",
      "outputs": [
        {
          "internalType": "uint256",
          "name": "",
          "type": "uint256"
        },
        {
          "internalType": "string",
          "name": "",
          "type": "string"
        },
        {
          "internalType": "uint256",
          "name": "",
          "type": "uint256"
        },
        {
          "internalType": "string",
          "name": "",
          "type": "string"
        },
        {
          "internalType": "string",
          "name": "",
          "type": "string"
        },
        {
          "internalType": "string",
          "name": "",
          "type": "string"
        }
      ],
      "payable": false,
      "stateMutability": "view",
      "type": "function"
    },
    {
      "constant": false,
      "inputs": [
        {
          "internalType": "uint256",
          "name": "_len",
          "type": "uint256"
        },
        {
          "internalType": "address",
          "name": "_owner",
          "type": "address"
        },
        {
          "internalType": "string",
          "name": "_ownerName",
          "type": "string"
        }
      ],
      "name": "changeOwner",
      "outputs": [],
      "payable": false,
      "stateMutability": "nonpayable",
      "type": "function"
    }
  ],
  "bytecode": "0x608060405260006002553480156200001657600080fd5b506040516200130e3803806200130e833981810160405260208110156200003c57600080fd5b81019080805160405193929190846401000000008211156200005d57600080fd5b838201915060208201858111156200007457600080fd5b82518660018202830111640100000000821117156200009257600080fd5b8083526020830192505050908051906020019080838360005b83811015620000c8578082015181840152602081019050620000ab565b50505050905090810190601f168015620000f65780820380516001836020036101000a031916815260200191505b506040525050508060009080519060200190620001159291906200011d565b5050620001cc565b828054600181600116156101000203166002900490600052602060002090601f016020900481019282601f106200016057805160ff191683800117855562000191565b8280016001018555821562000191579182015b828111156200019057825182559160200191906001019062000173565b5b509050620001a09190620001a4565b5090565b620001c991905b80821115620001c5576000816000905550600101620001ab565b5090565b90565b61113280620001dc6000396000f3fe608060405234801561001057600080fd5b50600436106100575760003560e01c806317d7de7c1461005c5780636ec96cc4146100df578063a731b36414610373578063b9db15b414610458578063c47f002714610651575b600080fd5b61006461070c565b6040518080602001828103825283818151815260200191508051906020019080838360005b838110156100a4578082015181840152602081019050610089565b50505050905090810190601f1680156100d15780820380516001836020036101000a031916815260200191505b509250505060405180910390f35b610371600480360360c08110156100f557600080fd5b810190808035906020019064010000000081111561011257600080fd5b82018360208201111561012457600080fd5b8035906020019184600183028401116401000000008311171561014657600080fd5b91908080601f016020809104026020016040519081016040528093929190818152602001838380828437600081840152601f19601f820116905080830192505050505050509192919290803590602001906401000000008111156101a957600080fd5b8201836020820111156101bb57600080fd5b803590602001918460018302840111640100000000831117156101dd57600080fd5b91908080601f016020809104026020016040519081016040528093929190818152602001838380828437600081840152601f19601f820116905080830192505050505050509192919290803590602001909291908035906020019064010000000081111561024a57600080fd5b82018360208201111561025c57600080fd5b8035906020019184600183028401116401000000008311171561027e57600080fd5b91908080601f016020809104026020016040519081016040528093929190818152602001838380828437600081840152601f19601f82011690508083019250505050505050919291929080359060200190929190803590602001906401000000008111156102eb57600080fd5b8201836020820111156102fd57600080fd5b8035906020019184600183028401116401000000008311171561031f57600080fd5b91908080601f016020809104026020016040519081016040528093929190818152602001838380828437600081840152601f19601f8201169050808301925050505050505091929192905050506107ae565b005b6104566004803603606081101561038957600080fd5b8101908080359060200190929190803573ffffffffffffffffffffffffffffffffffffffff169060200190929190803590602001906401000000008111156103d057600080fd5b8201836020820111156103e257600080fd5b8035906020019184600183028401116401000000008311171561040457600080fd5b91908080601f016020809104026020016040519081016040528093929190818152602001838380828437600081840152601f19601f820116905080830192505050505050509192919290505050610b27565b005b6104846004803603602081101561046e57600080fd5b8101908080359060200190929190505050610c3f565b604051808781526020018060200186815260200180602001806020018060200185810385528a818151815260200191508051906020019080838360005b838110156104dc5780820151818401526020810190506104c1565b50505050905090810190601f1680156105095780820380516001836020036101000a031916815260200191505b50858103845288818151815260200191508051906020019080838360005b83811015610542578082015181840152602081019050610527565b50505050905090810190601f16801561056f5780820380516001836020036101000a031916815260200191505b50858103835287818151815260200191508051906020019080838360005b838110156105a857808201518184015260208101905061058d565b50505050905090810190601f1680156105d55780820380516001836020036101000a031916815260200191505b50858103825286818151815260200191508051906020019080838360005b8381101561060e5780820151818401526020810190506105f3565b50505050905090810190601f16801561063b5780820380516001836020036101000a031916815260200191505b509a505050505050505050505060405180910390f35b61070a6004803603602081101561066757600080fd5b810190808035906020019064010000000081111561068457600080fd5b82018360208201111561069657600080fd5b803590602001918460018302840111640100000000831117156106b857600080fd5b91908080601f016020809104026020016040519081016040528093929190818152602001838380828437600081840152601f19601f820116905080830192505050505050509192919290505050610f6b565b005b606060008054600181600116156101000203166002900480601f0160208091040260200160405190810160405280929190818152602001828054600181600116156101000203166002900480156107a45780601f10610779576101008083540402835291602001916107a4565b820191906000526020600020905b81548152906001019060200180831161078757829003601f168201915b5050505050905090565b6107b6610f85565b6040518060e001604052803373ffffffffffffffffffffffffffffffffffffffff1681526020018881526020018781526020018681526020018581526020018481526020018381525090508060016000600254815260200190815260200160002060008201518160000160006101000a81548173ffffffffffffffffffffffffffffffffffffffff021916908373ffffffffffffffffffffffffffffffffffffffff160217905550602082015181600101908051906020019061087a929190610fd8565b506040820151816002019080519060200190610897929190610fd8565b506060820151816003015560808201518160040190805190602001906108be929190610fd8565b5060a0820151816005015560c08201518160060190805190602001906108e5929190610fd8565b509050507fcff17017bb43d92841a66d06f19cabdbb03632853b0718c9f046926bf2099b7460025433888787878d604051808881526020018773ffffffffffffffffffffffffffffffffffffffff1673ffffffffffffffffffffffffffffffffffffffff1681526020018060200180602001868152602001806020018060200185810385528a818151815260200191508051906020019080838360005b8381101561099d578082015181840152602081019050610982565b50505050905090810190601f1680156109ca5780820380516001836020036101000a031916815260200191505b50858103845289818151815260200191508051906020019080838360005b83811015610a035780820151818401526020810190506109e8565b50505050905090810190601f168015610a305780820380516001836020036101000a031916815260200191505b50858103835287818151815260200191508051906020019080838360005b83811015610a69578082015181840152602081019050610a4e565b50505050905090810190601f168015610a965780820380516001836020036101000a031916815260200191505b50858103825286818151815260200191508051906020019080838360005b83811015610acf578082015181840152602081019050610ab4565b50505050905090810190601f168015610afc5780820380516001836020036101000a031916815260200191505b509b50505050505050505050505060405180910390a160016002540160028190555050505050505050565b60016002540183108015610b3b5750600083115b8015610bab57503373ffffffffffffffffffffffffffffffffffffffff166001600060018603815260200190815260200160002060000160009054906101000a900473ffffffffffffffffffffffffffffffffffffffff1673ffffffffffffffffffffffffffffffffffffffff16145b610bb457600080fd5b816001600060018603815260200190815260200160002060000160006101000a81548173ffffffffffffffffffffffffffffffffffffffff021916908373ffffffffffffffffffffffffffffffffffffffff16021790555080600160006001860381526020019081526020016000206002019080519060200190610c39929190611058565b50505050565b600060606000606080606060016002540187108015610c5e5750600087115b610c6757600080fd5b866001600060018a0381526020019081526020016000206004016001600060018b038152602001908152602001600020600501546001600060018c0381526020019081526020016000206006016001600060018d0381526020019081526020016000206002016001600060018e038152602001908152602001600020600101848054600181600116156101000203166002900480601f016020809104026020016040519081016040528092919081815260200182805460018160011615610100020316600290048015610d7b5780601f10610d5057610100808354040283529160200191610d7b565b820191906000526020600020905b815481529060010190602001808311610d5e57829003601f168201915b50505050509450828054600181600116156101000203166002900480601f016020809104026020016040519081016040528092919081815260200182805460018160011615610100020316600290048015610e175780601f10610dec57610100808354040283529160200191610e17565b820191906000526020600020905b815481529060010190602001808311610dfa57829003601f168201915b50505050509250818054600181600116156101000203166002900480601f016020809104026020016040519081016040528092919081815260200182805460018160011615610100020316600290048015610eb35780601f10610e8857610100808354040283529160200191610eb3565b820191906000526020600020905b815481529060010190602001808311610e9657829003601f168201915b50505050509150808054600181600116156101000203166002900480601f016020809104026020016040519081016040528092919081815260200182805460018160011615610100020316600290048015610f4f5780601f10610f2457610100808354040283529160200191610f4f565b820191906000526020600020905b815481529060010190602001808311610f3257829003601f168201915b5050505050905095509550955095509550955091939550919395565b8060009080519060200190610f81929190611058565b5050565b6040518060e00160405280600073ffffffffffffffffffffffffffffffffffffffff1681526020016060815260200160608152602001600081526020016060815260200160008152602001606081525090565b828054600181600116156101000203166002900490600052602060002090601f016020900481019282601f1061101957805160ff1916838001178555611047565b82800160010185558215611047579182015b8281111561104657825182559160200191906001019061102b565b5b50905061105491906110d8565b5090565b828054600181600116156101000203166002900490600052602060002090601f016020900481019282601f1061109957805160ff19168380011785556110c7565b828001600101855582156110c7579182015b828111156110c65782518255916020019190600101906110ab565b5b5090506110d491906110d8565b5090565b6110fa91905b808211156110f65760008160009055506001016110de565b5090565b9056fea265627a7a723158204c9d70cfe9837ff6ecd9666a7da0c73d3b668d72d56219148bc501a5d9c1411064736f6c63430005100032",
  "source": "// SPDX-License-Identifier: MIT\r\npragma solidity >=0.4.22 <0.9.0;\r\n\r\ncontract Product {\r\n    event Added(uint index, address owner, string ownerName, string name, uint price, string manufactDate, string manufacturerName);\r\n\r\n    string private name;\r\n    struct Products {\r\n        address owner;\r\n        string manufacturerName;\r\n        string ownerName;\r\n        uint serialNo;\r\n        string name;\r\n        uint price;\r\n        string manufactDate;\r\n    }\r\n\r\n    mapping(uint => Products) products;\r\n    // mapping(uint => Products) ProductsFromSerialNo;\r\n    uint256 len = 0;\r\n\r\n    constructor(string memory _name) public{\r\n        name = _name;\r\n    }\r\n\r\n    function getName() public view returns(string memory) {\r\n        return name;\r\n    }\r\n\r\n    function setName(string memory _name) public {\r\n        name = _name;\r\n    }\r\n\r\n    function newProduct(string memory _manufacturerName, string memory _ownerName, uint _serialNo, string memory _name, uint _price, string memory _date) public {\r\n        Products memory p = Products({owner: msg.sender, manufacturerName: _manufacturerName, ownerName: _ownerName, serialNo: _serialNo, name: _name, price: _price, manufactDate: _date});\r\n        products[len] = p;\r\n        emit Added(len, msg.sender, _ownerName, _name, _price, _date, _manufacturerName);\r\n        len = len + 1;\r\n    }\r\n\r\n    function getProduct(uint _len) public view returns (uint, string memory, uint, string memory, string memory, string memory) {\r\n        require(_len < len + 1 && _len > 0);\r\n\r\n        return (_len, products[ _len - 1].name, products[ _len - 1].price, products[ _len - 1].manufactDate, products[ _len - 1].ownerName, products[ _len - 1].manufacturerName);\r\n    }\r\n\r\n    function changeOwner(uint _len, address _owner, string memory _ownerName) public{\r\n        require((_len < len + 1 && _len > 0) && products[_len - 1].owner == msg.sender);\r\n\r\n        products[_len - 1].owner = _owner;\r\n        products[_len - 1].ownerName = _ownerName;\r\n    }\r\n}\r\n",
  "sourcePath": "C:/DApps/ProductVerificationSystem/ngApp/contracts/Product.sol",
  "compiler": {
    "name": "solc",
    "version": "0.5.16+commit.9c3226ce.Emscripten.clang"
  },
  "schemaVersion": "3.4.1",
  "updatedAt": "2021-06-23T19:33:58.286Z",
  "networkType": "ethereum",
  "devdoc": {
    "methods": {}
  },
  "userdoc": {
    "methods": {}
  }
}